:020000000A28CC
:10000800FE000308F0000A08F100A929112BFA22C2
:100018008312031305191F28051D1028C70A47084E
:100028000A3A031D3428C701C80A4808063A031DBE
:100038003428C8013428851A3428851E2128C50A81
:1000480045080A3A031D3428C501C60A4608023A7B
:10005800031D34284508043A031D3428C501C60188
:10006800C308031D4028B001B00AB1010330B20033
:10007800B301DE223008BE00FE308600BD0106084E
:10008800BB00BC010310BB0DBC0D3B14BD08031D18
:1000980050280608BB00BC013B088600BD08031DAC
:1000A80086283E08F200F3014308B4000310B40D9B
:1000B8000310B40D0310B40D08303405B50043081F
:1000C800B6000310B60D04303605B7004308B80073
:1000D8000310B80C02303805B9004308BA00031001
:1000E800BA0C0310BA0C0310BA0C3A0839043704D6
:1000F8003504F321F930B4006400B40B8028842857
:1001080064008C293D0BB9283E08F200F30144082D
:10011800B4000310B40D0310B40D0310B40D08306F
:100128003405B5004408B6000310B60D0430360592
:10013800B7004408B8000310B80C02303805B900FD
:100148004408BA000310BA0C0310BA0C0310BA0C16
:100158003A08390437043504F321F930B40064004F
:10016800B40BB328B72864008C293D08023A031D54
:10017800EE283E08F200F3014708B4000310B40D5E
:100188000310B40D0310B40D08303405B50047084A
:10019800B6000310B60D04303605B7004708B8009E
:1001A8000310B80C02303805B9004708BA0003102C
:1001B800BA0C0310BA0C0310BA0C3A083904370405
:1001C8003504F321F930B4006400B40BE828EC28B6
:1001D80064008C293D08033A031D23293E08F200D8
:1001E800F3014808B4000310B40D0310B40D031054
:1001F800B40D08303405B5004808B6000310B60D34
:1002080004303605B7004808B8000310B80C0230AF
:100218003805B9004808BA000310BA0C0310BA0C24
:100228000310BA0C3A08390437043504F321F930BD
:10023800B4006400B40B1D29212964008C293D08F1
:10024800043A031D58293E08F200F3014508B4009A
:100258000310B40D0310B40D0310B40D08303405A9
:10026800B5004508B6000310B60D04303605B700D2
:100278004508B8000310B80C02303805B900450825
:10028800BA000310BA0C0310BA0C0310BA0C3A08DF
:10029800390437043504F321F930B4006400B40B91
:1002A8005229562964008C293D08053A031D9329D3
:1002B8003E08F200F3014608B4000310B40D031021
:1002C800B40D0310B40D08303405B5004608B60067
:1002D8000310B60D04303605B7004608B800031001
:1002E800B80C02303805B9004608BA000310BA0C39
:1002F8000310BA0C0310BA0C3A0839043704350451
:10030800F321F930B4006400B40B87298B29640009
:10031800831203133E08F200F3010030F321F93091
:10032800B4006400B40B952999296400831203135F
:10033800BD0A06303D02031C4328F930B4006400AE
:10034800B40BA329A72964000C28FA0A0319FB0A8D
:100358007B08033AE83003197A06031DE929FA01F4
:10036800FB0109308312031343020318BD29C30A92
:10037800DB29C301053044020318C429C40ADB2958
:10038800C401093047020318CB29C70ADB29C70172
:10039800053048020318D229C80ADB29C8010930E8
:1003A80045020318D929C50ADB29C501C60A46082A
:1003B800023A031DE9294508043A031DE929C60143
:1003C800C501C801C701C401C301831203138C10FE
:1003D80071088A0070088300FE0E7E0E0900F60080
:1003E80072037304031DFC298510760EF0390A2A5E
:1003F8007208023A7304031D032A8613F929720846
:10040800033A7304031D0B2A85107608F500F701DB
:100418007508F400770A122A0310F40CFF3E031D36
:10042800102A741C192A05141A2A05108515851115
:10043800F70A08307702031C0C2A720373040319A5
:100448002A2A7208033A7304031D2C2A8514312AB8
:100458007208023A730403198617051085110800FB
:10046800A901A71F3E2AA609A709A60A0319A70AD0
:10047800A901A90AA51F452AA409A509A40A0319BF
:10048800A50A250824040319642AA801A80AA51B9B
:10049800512A0310A40DA50D4A2A25082702031D79
:1004A800572A24082602031C602A2408A6022508C5
:1004B800031CA703A7020310A50CA40CA80B512A20
:1004C800290803196C2AA609A709A60A0319A70A65
:1004D8002708A5002608A4000800C908031D782AD3
:1004E800F201F20AF30120233930AC003030AD00BC
:1004F800AE01AF014208F5004108F4004008F300DE
:100508003F08F2004130F900C630F8004E30F700DD
:100518006D30F600AB227208AC0773080318730F2E
:10052800AD0774080318740FAE0775080318750A29
:10053800AF072F08C2002E08C1002D08C0002C08E4
:10054800BF004208AB004108AA00AB130800A00195
:10055800A101A201A301721CC52A7608A007770889
:1005680003110318013E031DA1077808031103189E
:10057800013E031DA207790803110318013E031D5C
:10058800A3070310F60DF70DF80DF90D0310F50C80
:10059800F40CF30CF20C7508740473047204031D54
:1005A800AF2A2308F5002208F4002108F3002008E8
:1005B800F20008003308A5003208A4003008A4029D
:1005C8003108031CA503A502A40A0319A50A712270
:1005D8002B08A7002A08A600342230082407B000F8
:1005E80031080318310A2507B100080007309F00B9
:1005F80097018B010B178B17F93083169200053082
:100608008312920083168C140B178B1724308500E5
:1006180086018312851486170800FA01FB01BF01C1
:10062800C001C101C201C301C401C501C601C7019E
:10063800C801C90183010B287208BF007308C000F4
:0A064800C101C201C901C90A08007E
:02400E00013F70
:00000001FF
