:020000000A28CC
:10000800FE000308F8000A08F900B4281329FC20A8
:1000180083120313061F1F28061B1028F60A7608EA
:100028000A3A031D3428F601F70A7708063A031D31
:100038003428F7013428861F3428861B2128F40A1F
:1000480074080A3A031D3428F401F50A7508023ABF
:10005800031D34287408043A031D3428F401F501FB
:10006800FB0106307B020318AC280130FA007B0A3A
:100078003F280310FA0DFF3E031D3D287A0883121E
:1000880003138600FB08031D532875088500F93003
:10009800FA006400FA0B4D285128640096287B0B5F
:1000A8005F2874088500F930FA006400FA0B5928B3
:1000B8005D28640096287B08023A031D6D2877089E
:1000C8008500F930FA006400FA0B67286B28640091
:1000D80096287B08033A031D7B2876088500F930AB
:1000E800FA006400FA0B75287928640096287B08C2
:1000F800043A031D892873088500F930FA00640062
:10010800FA0B83288728640096287B08053A031D84
:10011800992872088500F930FA006400FA0B9128D2
:1001280095286400831203138501F930FA006400EE
:10013800FA0B9B289F286400831203138601F93069
:10014800FA006400FA0BA528A9286400FB0A3528E0
:10015800F930FA006400FA0BAE28B22864000C28C3
:10016800F00A0319F10A7108033AE8300319700616
:10017800031DF228F001F101093072020318C628A4
:10018800F20AE428F201053073020318CD28F30AB5
:10019800E428F301093076020318D428F60AE42883
:1001A800F601053077020318DB28F70AE428F7017F
:1001B800093074020318E228F40AE428F401F50A65
:1001C8007508023A031DF2287408043A031DF22840
:1001D800F501F401F701F601F301F20183120313AB
:1001E8008C1079088A0078088300FE0E7E0E0900BC
:1001F80007309F0097018B010B178B17F930831677
:10020800920005308312920083168C140B178B17FB
:100218008501C03086008312061386130800F0019A
:10022800F101F201F301F401F501F601F70183018F
:020238000B2891
:02400E00013F70
:00000001FF
