:020000040000FA
:020000002528B1
:08000800FA000308F900FF0BE8
:100010000E280930FF00B820C320D120F7080319AB
:10002000F603F70B1F28F608031D1F280F30F600F4
:100030004230F7004030F8070318F70A5C200B1134
:1000400079088300FA0E7A0E09008316850186016D
:100050000617861788308100831296200F30F6002D
:100060004330F7004030F8008B018B168B170030BF
:100070008600720885000614AF20003086007308E1
:1000800085008614AF20003086007B0885000615A9
:10009000AF20003086007C0885008615AF20003038
:1000A00086007D0885000616AF20003086007E0899
:1000B00085008616AF203728F20A7208F63E03182C
:1000C00062280800F201F30A7308FA3E031869284F
:1000D0000800F301F201FB0A7B08F63E03187128C1
:1000E0000800FB01FC0A7C08FA3E03187828080087
:1000F000FC01FD0A7D08FC3E03187F2808007E08ED
:10010000FE3E031888287D08F63E0318882808005C
:10011000FD01FE0A7E08FD3E03188F280800F2014B
:10012000F301FB01FC01FD01FE0108000130F200BA
:10013000F301FB01FC01FD01FE010530F300093074
:10014000FB000530FC000330FD000230FE000930EA
:10015000FF00E001E101E201E301E40108000A30EF
:10016000F0006430F100F10BB328F00BB128080067
:10017000061BBC286010BD286014861BC128E01037
:10018000C228E01408006308E206E309600861067B
:10019000E305E20563086204E105FF3A6005E10456
:1001A0000800641CD628611C6410DB286118D9285B
:1001B000DB2864146920E41CE028E11CE41008003A
:0C01C000E118E3280800E414792008008E
:02400E00013F70
:00000001FF
